:10032D0041540D0A0041542B43575341503F0D0A80
:10033D000041542B4349504D55583D310D0A004154
:10034D00542B4349505345525645523D312C38306C
:10035D0038300D0A004F4B007265616479004D6FA6
:10036D00646530004D6F646531004D6F646532001A
:10037D004D6F646533005344310053443200534490
:10038D0033005344340053746F700000E0100808BC
:10039D0010E000000F102020100F0000001010F8CA
:1003AD00000000000020203F2020000070080808F9
:1003BD0008F0000030282422213000003008080801
:1003CD008870000018202121221C00000080403080
:1003DD00F8000000060524243F242400F8888888AE
:1003ED000808000019202020110E0000E010888858
:1003FD00900000000F112020201F00001808088811
:10040D006818000000003E01000000007088080818
:10041D00887000001C222121221C0000F008080811
:10042D0010E0000001122222110F00000000000058
:10043D000000000001010101010100000000C0C029
:10044D000000000000003030000000180808F80817
:10045D000818000000203F2000000008F8080000E8
:10046D0008F808203F210101213F2008F80800006D
:10047D00000000203F202020203000004042445842
:10048D0040407F40405048C6000000004044444476
:10049D0044444444444444FF0000000808E8292E25
:1004AD0028E80808C80C0BE80808000000FF0949F7
:1004BD00897F00000F40807F0000001060028C00DB
:1004CD0000FE9292929292FE00000004047E014082
:1004DD007E42427E427E42427E40000000FC242449
:1004ED0024FC252624FC242424040040308F808401
:1004FD004C55252525554C8080800000FC84848436
:10050D00FC001010101010FF101000003F10101004
:10051D003F0000010640807F00000000F80106004A
:10052D00F0121212F2020202FE000000FF000000A3
:10053D001F1111111F0040807F0000100C44444416
:10054D004445C64444444444140C008040201E20BD
:10055D0040407F444444444440400000FC84848433
:10056D00FC001010101010FF101000003F101010A4
:10057D003F0000010640807F000000060909E6F8F3
:10058D000C040202020202041E0000000000071FFC
:10059D003020404040404020100000000000C0C00E
:1005AD0000000000000000000000000000003030DE
:0F05BD0000000000000000000000002B2B2B00AE
:10115A00C101C10202580000012E2D013019012AD5
:10116A0055012F1501322A012D26012900012B00D4
:10117A0001270A025A0000025601C2013100013F4A
:0F118A0000015C00013300012300012400C100BB
:04138C007F0A7E0056
:10139000E4FDFCC3ED9FEC9E5015E4FBFA0BBB0093
:0F13A000010AEB64784A70F50DBD00010C80E482
:0113AF00221B
:1013D200758921758DFD758BFDD28EC29FD29ED2ED
:1013E2009CD2AC758C4CE4F58AD2A9D28CD2AF22B5
:08119A008B748A7589768D774C
:1011A2007F017E001213901FEFC395775018AB7426
:1011B200AA75A9768F82758300120C3BF599309936
:1011C200FDC2990F80E27F017E00121390E4F54088
:0211D200F541E5
:0111D40022F8
:10105E00756903756AE8786B7C007D007BFF7A0505
:10106E0079C87E007F04120C15D2027B007A0079BB
:10107E006B12000EAD077B007A00796B12119A7F0E
:10108E00647E001213907A03792D12110C7A037973
:10109E003212110C7BFF7A03793E12110E7BFF7A0E
:0810AE0003794C12110EC2027D
:0110B6002217
:1013F2001200261213D27FF47E0112139012105E95
:101402001212B08F2A1208001209DD1205CC80F0E8
:03000B000211D50A
:1011D500C0E0C0F0C083C082C0D075D008758C4C0B
:1011E500758A000526E526700205256414452570D7
:1011F5000C1212E1752500752600121210120CADA5
:0B120500D0D0D082D083D0F0D0E032F7
:1000260012133912124A756CFF756D04756E58E419
:10003600FBFDFF121000756CFF756D04756E587B25
:10004600017D08E4FF121000756CFF756D03756E77
:10005600987B0B7D10E4FF121000E52E75F00A84E4
:10006600FB756CFF756D03756E987D18E4FF1210B5
:1000760000E52E75F00A84ABF0756CFF756D03759F
:100086006E987D20E4FF121000756CFF756D047587
:100096006E887B087D28E4FF120F92756CFF756DE4
:1000A60004756E58E4FB7D40FF121000756CFF75F9
:1000B6006D04756E587B027D48E4FF121000756C66
:1000C600FF756D03756E987B0B7D50E4FF12100073
:1000D600E53075F00A84FB756CFF756D03756E98D7
:1000E6007D58E4FF121000E53075F00A84ABF07518
:1000F6006CFF756D03756E987D60E4FF12100075D8
:100106006CFF756D04756E887B087D68E4FF120FC1
:1001160092756CFF756D04756E887B02E4FD7F0237
:10012600120F92756CFF756D04756E887B037D10DA
:100136007F02120F92756CFF756D03756E987B0BBF
:100146007D207F02121000756CFF756D04756E8838
:100156007B087D407F02120F92756CFF756D0475EA
:100166006E887B04E4FD7F04120F92756CFF756D3B
:1001760004756E887B057D107F04120F92756CFFE7
:10018600756D03756E987B0B7D207F04121000E55C
:100196002F75F00A84FB756CFF756D03756E987D7F
:1001A600287F04121000E52F75F00A84ABF0756CF9
:1001B600FF756D03756E987D307F04121000756CA7
:1001C600FF756D03756E987B0A7D387F04121000EB
:1001D600E53275F00A84FB756CFF756D03756E98D4
:1001E6007D407F04121000E53275F00A84ABF0758D
:1001F6006CFF756D03756E987D487F04121000754F
:100206006CFF756D03756E987B0A7D507F04121026
:1002160000E52D75F00A84FB756CFF756D03756E30
:10022600987D587F04121000E52D75F00A84ABF016
:10023600756CFF756D03756E987D607F04121000F6
:10024600756CFF756D04756E887B06E4FD7F06127E
:100256000F92756CFF756D04756E887B077D107F38
:1002660006120F92756CFF756D03756E987B0B7D8C
:10027600207F06121000E52975F00A84FB756CFFD5
:10028600756D03756E987D287F06121000E5297539
:10029600F00A84ABF0756CFF756D03756E987D3052
:1002A6007F06121000756CFF756D03756E987B0ADC
:1002B6007D387F06121000E52B75F00A84FB756CFD
:1002C600FF756D03756E987D407F06121000E52B55
:1002D60075F00A84ABF0756CFF756D03756E987DCD
:1002E600487F06121000756CFF756D03756E987B5E
:1002F6000A7D507F06121000E52775F00A84FB750B
:100306006CFF756D03756E987D587F06121000E5BB
:100316002775F00A84ABF0756CFF756D03756E98E2
:070326007D607F060210005C
:10080000E52E75F00A84FB756CFF756D03756E98A7
:100810007D18E4FF121000E52E75F00A84ABF07528
:100820006CFF756D03756E987D20E4FF121000E576
:100830003075F00A84FB756CFF756D03756E987DDD
:1008400058E4FF121000E53075F00A84ABF0756CC7
:10085000FF756D03756E987D60E4FF121000E52A48
:1008600075F00A84FB756CFF756D03756E987D28B5
:100870007F02121000E52A75F00A84ABF0756CFF58
:10088000756D03756E987D307F02121000E52F752F
:10089000F00A84FB756CFF756D03756E987D287F7B
:1008A00004121000E52F75F00A84ABF0756CFF752B
:1008B0006D03756E987D307F04121000E53275F07F
:1008C0000A84FB756CFF756D03756E987D407F041F
:1008D000121000E53275F00A84ABF0756CFF756D8F
:1008E00003756E987D487F04121000E52D75F00A9F
:1008F00084FB756CFF756D03756E987D587F0412CF
:100900001000E52D75F00A84ABF0756CFF756D0372
:10091000756E987D607F04121000E52975F00A84D9
:10092000FB756CFF756D03756E987D287F06121040
:1009300000E52975F00A84ABF0756CFF756D0375E1
:100940006E987D307F06121000E52B75F00A84FB4F
:10095000756CFF756D03756E987D407F06121000F3
:10096000E52B75F00A84ABF0756CFF756D03756E41
:10097000987D487F06121000E52775F00A84FB7504
:100980006CFF756D03756E987D587F06121000E53B
:100990002775F00A84ABF0756CFF756D03756E9862
:1009A0007D607F06121000756CFF756D03756E9883
:1009B000AB337D6C7F02121000756CFF756D037593
:1009C0006E98AB317D6C7F04121000756CFF756DF5
:0D09D00003756E98AB5C7D6C7F0602100015
:1012E100E52DC3943B5003052D22E4F52DE532C3D2
:1012F100943B5003053222E4F532E52FC394175095
:0C13010003052F22E4F52DF532F52F2214
:10121000E55B455A6033E527D39400400315272248
:1012200075273BE52BD394004003152B22752B3BF0
:10123000E529D394004003152922C292E4F55AF51A
:0A1240005BF53FF527F52BF5292299
:100F1700756CFF756D03756E627B007A007935120B
:100F27000E95EA494B702AF56CF56D756E3EFB7AA6
:100F3700007935120E95EA494B7016756CFF756D81
:100F470003756E65FB7A007935120E95EA494B6099
:100F5700177E007F0A7D007B007A007935120C68C6
:100F6700D201E4F540F541220541E5417002054013
:100F7700C39496E54094004011E4F540F541FE7FA7
:0B0F87000AFDFB7A007935120C68228D
:100E1000E541643245407010F540F541FE7F0AFD22
:100E2000FB7A007935120C68E534D39400401874CD
:100E3000352541F8E6FF74422522F8A6070522E58C
:100E400022700205211534D3E5419403E540940056
:100E5000403AAF4174332FF8E6642B702F74342F6F
:100E6000F8E66449702674352FF8E6D39400401CE8
:100E70007E007F147D007B007A007942120C68743A
:100E8000352541F8E6F534E4F521F5220541E54143
:040E900070020540A7
:010E9400223B
:06110C007BFFAD6AAC6937
:101112008B6F8A7089718C728D737E007F0A7D005D
:101122007B007A007935120C68E4F540F541AB6F2B
:10113200AA70A97112000EAD07AB6FAA70A9711245
:10114200119AAF73AE72121390300103C201227F63
:08115200647E0012139080C2BC
:100CAD000523AF237E00C3EF955BEE955A5004C22A
:100CBD00908016D3EF9557EE9556500DD290EFB517
:100CCD005707EEB55603E4F523E5317037E55C14AF
:100CDD00601414601914601E14602324047025E43C
:100CED00F55AF55B801E755A00755B968016755A20
:100CFD0000755BC8800E755A01755B5E8006755A6E
:100D0D0001755BC2E5316401706CE52E24F1FFE5E0
:100D1D002AD39F5011E52AC39530400A755A0075A4
:100D2D005B96755C0122E52E24F6FEE52AD39E50D6
:100D3D0010E52AC39F400A755A00755BC8755C02A1
:100D4D0022E52AD39E4010E52A9530400A755A01B6
:100D5D00755B5E755C0322E52AD3952E400A755AA4
:100D6D0001755BC2755C0422E52AD395305007E40A
:060D7D00F55AF55BF55C80
:010D8300224D
:1009DD00756CFF756D03756E6B7B007A0079421235
:1009ED000E95EA494B6005E4F531801B756CFF757A
:1009FD006D03756E717B007A007942120E95EA498E
:100A0D004B600E753101E4F55AF55BF53FF55C6110
:100A1D002C756CFF756D03756E777B007A007942CE
:100A2D00120E95EA494B6005753102801A756CFFFF
:100A3D00756D03756E7D7B007A007942120E95EA15
:100A4D00494B600D753103E4F55AF55B753F016156
:100A5D0033756CFF756D03756E837B007A0079427B
:100A6D00120E95EA494B6013E531B4020C755A002C
:100A7D00755B96753F01755C018076756CFF756DC4
:100A8D0003756E877B007A007942120E95EA494B09
:100A9D006013E531B4020C755A00755BC8753F01E2
:100AAD00755C02804C756CFF756D03756E8B7B00EC
:100ABD007A007942120E95EA494B6010E531B40285
:100ACD0009755A01755B5E755C038025756CFF7544
:100ADD006D03756E8F7B007A007942120E95EA498F
:100AED004B6014E531B40209755A01755BC2755C32
:100AFD00047F147E008032756CFF756D03756E93E7
:100B0D007B007A007942120E95EA494B6029E53156
:100B1D00B4020BE4F55AF55BF53FF531F55CE4F500
:100B2D0029752B1EF5277F14FE1213907D007B0077
:080B3D007A007942120C6822D3
:1005CC0020942812138C20941F20920EE4F5297588
:1005DC002B1EF527D292F55C800EE533C3940850A0
:1005EC000405338003E4F5333094FD309502C1CC1F
:1005FC0012138C309502C1BC209202C1BCE533B4FD
:10060C0009004002C1BC90061825E073C12AC13E06
:10061C00C14EC15EC16EC17EC18EC19EC1AEE531FF
:10062C00700BE55CC394045004055CC1BCE4F55C40
:10063C00807EE527C3943B500405278073E4F5279F
:10064C00806EE52BC3943B5004052B8063E4F52BA3
:10065C00805EE529C39417500405298053E4F529DD
:10066C00804EE52DC3943B5004052D8043E4F52DBD
:10067C00803EE532C3943B500405328033E4F532BE
:10068C00802EE52FC394175004052F8023E4F52FFB
:10069C00801EE52EC394645004052E8013752E64C1
:1006AC00800EE530C3952E500405308003852E3026
:1006BC00E533600964046005E533B405033095FD4A
:1006CC00309602E1A112138C309602E19120920235
:1006DC00E191E533B409004002E1919006ED25E08B
:1006EC0073C1FFE113E123E133E143E153E163E142
:1006FC0073E183E531700BE55CD394004004155C29
:10070C00E191755C04807EE527D3940040041527A5
:10071C00807375273B806EE52BD394004004152B1A
:10072C008063752B3B805EE529D39400400415292A
:10073C00805375293B804EE52DD394004004152D34
:10074C008043752D3B803EE532D394004004153236
:10075C00803375323B802EE52FD394004004152F47
:10076C008023752F3B801EE52ED395304004152E2B
:10077C00801385302E800EE530D394004004153064
:10078C008003E4F530E533600964046005E533B4B7
:10079C0005033096FD20973F12138C209739309724
:1007AC00FDE533702FE531C394035004053180030C
:1007BC00E4F531E4F55AF55BF55CE53FB40118B2AC
:1007CC0000300009855B24E4F55AF55B22755A006C
:0707DC0085245B22E4F533E4
:0107E30022F3
:030023000210B711
:1010B700C0E0C0F0C083C082C0D075D000C000C0FF
:1010C70001C002C003C004C005C006C00730981A9B
:1010D700C29885992C74352541F8A62C3002051243
:1010E7000F178006200203120E10D007D006D00576
:1010F700D004D003D002D001D000D0D0D082D0838A
:05110700D0F0D0E03241
:10127F00C2A18A807F027E00121290D2A07F027ECE
:01128F00005E
:10129000E4FDFCC3ED9FEC9E50070DBD00010C80EA
:0F12A000F2E4FFFE0FBF00010EEF640A4E70F57F
:0112AF00221C
:1007E400C2A2D2A1E4FBD2A07F02FE121290C2A048
:0907F400E47003D38001C350EB53
:0107FD0022D9
:0D0FF000AA071207E4C2A212127FC2A022BB
:101339007F647E00121290D2A4D2A37F647E001231
:1013490012907F3E120FF07FB8120FF07FC0120F7C
:0B135900F07F40120FF07F3F020FF00A
:0B143000F582E435F0F583120C3BFF61
:0D143B00AA071207E4D2A212127FC2A0225B
:10124A00C2A4C2A37FB8120FF07F40120FF0E4F5D8
:10125A0069E56924B8FF120FF0E4F9E92440FF12A6
:10126A000FF0E4FF12143B09B940F00569E569C3C0
:04127A00940840DDB7
:01127E00224D
:10130D008F70A90553017F537007E9C394405006B0
:10131D00C2A4D2A38007D2A4C2A353013FE92440A3
:0C132D00FF120FF0E57024B8FF020FF073
:060F92008F698D6A8B6B74
:100F9800E4F56F12130DE4F56FAB6CAA6DA96E75CD
:100FA800F020E56BA4256F121430056FE56FC3942C
:100FB8001040E6E56904FFAD6A12130DE4F56FE52C
:100FC8006B75F020A42410FFE435F0FEE56F2FF5D3
:100FD80082E43EF583AB6CAA6DA96E121437056FD7
:070FE800E56FC3941040D82F
:010FEF0022DF
:061000008F698D6A8B6B05
:10100600E4F56F12130DE4F56FAB6CAA6DA96E755E
:10101600F010E56BA4256F121430056FE56FC394CD
:101026000840E6E56904FFAD6A12130DE4F56FE5C5
:101036006B75F010A42408FFE435F0FEE56F2FF57C
:1010460082E43EF583AB6CAA6DA96E121437056F68
:07105600E56FC3940840D8C8
:01105D002270
:0B144800EF1FAC0670011E4C70F62276
:0213B000AD0787
:1013B200E4FBC2A7ED1392A77F0A7E00121448D263
:1013C200A7EDC313FD0BBB08E97F057E000214489D
:10141200E4FBC2A7EDC313FDD2A730A703430580A7
:0D1422007F047E001214480BBB08E7AF05E5
:01142F00229A
:10136400C203D2A77F087E00121448C2A77F507E12
:1013740000121448D2A77F0E7E00121448A2A7922E
:08138400037F147E00021448EF
:1012B0001213647FCC1213B07F441213B030A7FD19
:1012C0001213647FCC1213B07FBE1213B01214122B
:1012D000AA07121412EFC454F0FFEAC4540F4FFFD0
:0112E00022EB
:03000000020D846A
:0C0D8400787FE4F6D8FD758177020DCB76
:100B4500E709F608DFFA8046E709F208DFFA803E92
:100B550088828C83E709F0A3DFFA8032E309F6087F
:100B6500DFFA8078E309F208DFFA807088828C83E7
:100B7500E309F0A3DFFA806489828A83E0A3F6089B
:100B8500DFFA805889828A83E0A3F208DFFA804C75
:100B950080D280FA80C680D4806980F2803380104C
:100BA50080A680EA809A80A880DA80E280CA8033B5
:100BB50089828A83ECFAE493A3C8C582C8CCC5832D
:100BC500CCF0A3C8C582C8CCC583CCDFE9DEE780FD
:100BD5000D89828A83E493A3F608DFF9ECFAA9F07C
:100BE500EDFB2289828A83ECFAE0A3C8C582C8CCD2
:100BF500C583CCF0A3C8C582C8CCC583CCDFEADEEB
:100C0500E880DB89828A83E493A3F208DFF980CC4C
:100C150088F0EF60010E4E60C388F0ED2402B40445
:100C25000050B9F582EB2402B4040050AF232345EC
:060C35008223900B957371
:100C3B00BB010CE58229F582E5833AF583E022506E
:100C4B0006E92582F8E622BBFE06E92582F8E222B8
:0D0C5B00E58229F582E5833AF583E49322D2
:10000E00E4FFFE120C94600C0FEF70010E09E97004
:05001E00F20A80EF2250
:100E95008B698A6A896BAB6CAA6DA96E120C94601A
:100EA50063AB69AA6AA96B120C94605F856C6F8548
:100EB5006D70856E718B728A738974AB6FAA70A918
:100EC50071120C94FF6023AB72AA73A974120C946F
:100ED5006F7017042571F571E43570F5707401258F
:100EE50074F574E43573F57380D1AB6FAA70A9718D
:100EF500120C947002800D7401256BF56BE4356A54
:100F0500F56A809DAB69AA6AA96B227B007A007994
:020F15000022B8
:100C6800EF4E6012EF60010EEDBB010B89828A83A3
:100C7800F0A3DFFCDEFA2289F05007F709DFFCA9B0
:0C0C8800F022BBFEFCF309DFFCA9F02207
:100D90000213F2E493A3F8E493A34003F68001F274
:100DA00008DFF48029E493A3F85407240CC8C33364
:100DB000C4540F4420C8834004F456800146F6DF33
:100DC000E4800B010204081020408090115AE47E58
:100DD000019360BCA3FF543F30E509541FFEE49328
:100DE000A360010ECF54C025E060A840B8E493A3EF
:100DF000FAE493A3F8E493A3C8C582C8CAC583CA1A
:100E0000F0A3C8C582C8CAC583CADFE9DEE780BED1
:011199000055
:100C9400BB010689828A83E0225002E722BBFE025E
:090CA400E32289828A83E4932291
:00000001FF
