:10075E002057656C636F6D65202055736572202080
:10076E00003030302E30204D2F73202020202020BE
:10077E0020200077656C636F6D6520757365720060
:100026004101E2004102E4004102E30042008F0088
:1000360000610000E200C1814001C0804101C08032
:100046004100C1814001C0804100C1814000C181A1
:100056004001C0804101C0804100C1814000C18192
:100066004001C0804100C1814001C0804101C08083
:100076004100C1814001C0804100C1814000C18171
:100086004001C0804100C1814001C0804101C08063
:100096004100C1814000C1814001C0804101C08052
:1000A6004100C1814001C0804100C1814000C18141
:1000B6004001C0804101C0804100C1814000C18132
:1000C6004001C0804100C1814001C0804101C08023
:1000D6004100C1814000C1814001C0804101C08012
:1000E6004100C1814001C0804100C1814000C18101
:1000F6004001C0804100C1814001C0804101C080F3
:100106004100C1814001C0804100C1814000C181E0
:100116004001C0804101C0804100C1814000C181D1
:100126004001C0804100C1814001C0804101C080C2
:100136004100C18140610001E300C0C101C3030267
:10014600C2C60607C705C5C404CC0C0DCD0FCFCE5D
:100156000E0ACACB0BC90908C8D81819D91BDBDA8D
:100166001A1EDEDF1FDD1D1CDC14D4D515D71716AD
:10017600D6D21213D311D1D010F03031F133F3F2BD
:100186003236F6F737F53534F43CFCFD3DFF3F3E9D
:10019600FEFA3A3BFB39F9F83828E8E929EB2B2A2D
:1001A600EAEE2E2FEF2DEDEC2CE42425E527E7E6ED
:1001B6002622E2E323E12120E0A06061A163A3A25D
:1001C6006266A6A767A56564A46CACAD6DAF6F6EDD
:1001D600AEAA6A6BAB69A9A86878B8B979BB7B7A0D
:1001E600BABE7E7FBF7DBDBC7CB47475B577B7B62D
:1001F6007672B2B373B17170B050909151935352FD
:100206009296565797559594549C5C5D9D5F9F9E1C
:100216005E5A9A9B5B99595898884849894B8B8AAC
:100226004A4E8E8F4F8D4D4C8C448485458747466C
:1002360086824243834181804041000000410001A3
:0102460000B7
:10078E00E4FDFCC3ED9FEC9E5015E4FBFA0BBB00A1
:0F079E00010AEB64784A70F50DBD00010C80E490
:0107AD002229
:1007AE00438921758DFD758BFDD28EC29FD29ED24F
:1007BE009CD2AC758C4CE4F58AD2A9D28CD2AF22E5
:080003008F993099FDC299228A
:10000E00120248FF600C120003740129F9E43AFA57
:03001E0080EE224F
:1007CE00D287C2B4C2B5D2B6D2B4002087FDC2B4AD
:0107DE0022F8
:0F07DF001207CEC2B5C2B6D2B48F8000C2B42208
:0F07EE001207CED2B5C2B6D2B48F8000C2B422E9
:1006FA00EF60031207DF120248FF6025640A6021D7
:10070A00EF640D601C1207EE740129F9E43AFAFE4F
:10071A009002E9E0FDD3E99DEE940040D9E060D66D
:02072A00222289
:10072C007F381207DF7F0C1207DF7F061207DF7F8F
:10073C00011207DF7BFF7A07795EE49002E9F07F14
:10074C00801206FA7A07796FE49002E9F07FC00212
:02075C0006FA9B
:0E053B009002F3EBF0A3EAF0A3E9F0A3EDF0D9
:100549007FFF7DFF9002F6E0FE14F0EE603190022D
:10055900F3E0FBA3E475F0011202F5A9F0FA120227
:10056900486FFB7A0024E2F582EA3400F583E06DF6
:10057900FF74E32BF582EA3401F583E0FD80C5EFD2
:03058900FEEDFF85
:01058C00224C
:0E058D009002F3EBF0A3EAF0A3E9F0A3EDF087
:10059B007F017E0012078E1F9002F6E0FEEFC39ED6
:1005AB00501D9002F3E0FBA3E0FAA3E0F98F8275F4
:1005BB008300120261F5993099FDC2990F80D97FA2
:0B05CB00017E0012078EE49001E2F0B8
:0105D6002202
:1006C7009001E2E0FFEDD39F4002AD07E4FFEFC3E7
:1006D7009D501874A22FF582E43400F583E01202CE
:1006E7008E740129F9E43AFA0F80E3E49001E2F00D
:0206F700AF054D
:0106F90022DE
:100619009001E2E0FED394004026900000E06E6075
:1006290006EEF0E4A3F022900001E0C39403501D0C
:10063900E02FF0E0C3940340149002E47401F02227
:0D064900E4900000F09001E2F0900000F05D
:010656002281
:100449009002E4E06401707CF07B017A0079037D1D
:10045900401206C7900002EFF07A00790324FEFDEE
:1004690012053BAD07AC06ECFFAE05900002E0FDBE
:100479002401F582E43400F583E06F703874022DAD
:10048900F582E43400F583E06E702A900003E0649D
:10049900017031A3E06403702BA3E0D394025024CC
:1004A900A3E0FEA3E07C002400FFEC3E90008FF067
:1004B900A3EFF080007E007F407D007B017A007908
:0404C9000312030B0C
:0104CD00220C
:1005D7009002EBEFF0A3EDF0E4A3F0A3EBF0E4A3BC
:1005E700F09002E9A3E09002F0F07B017A0279EB48
:1005F7007D0612053BAD07AC06ECFFAE059002F198
:10060700EFF0AF06A3EFF07B017A0279EB7D0802EA
:02061700058D4F
:1003C30090008FE0FAA3E0FB7C037DE8FFAE02120E
:1003D30002A0900043EFF07C037DE8AF03AE02126E
:1003E30002A0AA04AB057D647C00AF03AE02120237
:1003F300A0A3EFF07D647C00AF03AE021202A0AABB
:1004030004AB057D0A7C00AF03AE021202A0A3EF8A
:10041300F07D0A7C00AF03AE021202A0A3EDF0E46C
:10042300FE7FC01207DF74432EF582E43400F583A8
:10043300E02430FF1207EEEEB403057F2E1207EE21
:050443000EEEB405DC23
:010448002291
:100657001207AE12072C7BFF7A07798112000ED39F
:100667009000A1E094E89000A0E094034015E4F026
:10067700A3F09002E9F0A304F0E4FBFA7D037F0105
:0B0687001205D71204491203C380D4EF
:03000B0002069258
:10069200C0E0C083C082C0D075D000C006C007755C
:1006A2008CFC758A187F051206199000A1E004F0EF
:1006B20070069000A0E004F0D007D006D0D0D0821F
:0506C200D083D0E032FE
:030023000204CE06
:1004CE00C0E0C0F0C083C082C0D075D01030984D4F
:1004DE00C298AF9990008DE4F0A3EFF09001E2E0A6
:1004EE00FFC39408501A90008DA3E0FE74A22FF55E
:1004FE0082E43400F583EEF09001E2E004F0801423
:10050E009001E2E4F0FE7F40FD7B017A0079A212B9
:10051E00030B800E90008DA3E0FF120003309902B2
:0D052E00C299D0D0D082D083D0F0D0E0327E
:03000000020337C1
:0C033700787FE4F6D8FD75811702037E84
:10024800BB010689828A83E0225002E722BBFE02B4
:09025800E32289828A83E49322E7
:10026100BB010CE58229F582E5833AF583E0225052
:1002710006E92582F8E622BBFE06E92582F8E2229C
:0D028100E58229F582E5833AF583E49322B6
:10028E00BB010689828A83F0225002F722BBFE014F
:02029E00F32249
:1002A000BC000BBE0029EF8DF084FFADF022E4CC42
:1002B000F875F008EF2FFFEE33FEEC33FCEE9DEC0B
:1002C000984005FCEE9DFE0FD5F0E9E4CEFD22ED51
:1002D000F8F5F0EE8420D21CFEADF075F008EF2F9B
:1002E000FFED33FD4007985006D5F0F222C398FD8C
:0502F0000FD5F0EA2229
:1002F500A3F8E0C5F025F0F0E582158270021583BC
:06030500E0C838F0E82218
:10030B00EF4E6012EF60010EEDBB010B89828A8309
:10031B00F0A3DFFCDEFA2289F05007F709DFFCA916
:0C032B00F022BBFEFCF309DFFCA9F0226D
:10034300020657E493A3F8E493A34003F68001F273
:1003530008DFF48029E493A3F85407240CC8C333BB
:10036300C4540F4420C8834004F456800146F6DF8A
:10037300E4800B0102040810204080900026E47EF4
:10038300019360BCA3FF543F30E509541FFEE4937F
:10039300A360010ECF54C025E060A840B8E493A346
:1003A300FAE493A3F8E493A3C8C582C8CAC583CA71
:1003B300F0A3C8C582C8CAC583CADFE9DEE780BE29
:0102470000B6
:00000001FF
