:1000260051580051580D0A0051440051440D0A0020
:100036005A44005A440D0A008060F80708C8381070
:100046005454FF54547C10000000FF8049312F485F
:1000560049497F49494948000000FC4454545455D5
:10006600FE545454F444440040300F402315498153
:100076007F050911294440001010D0FF90502050F0
:100086004C434C5020404000040300FF00414458BC
:10009600414E6058474040001060028C00FE02F25C
:1000A60002FE00F800FF000004047E018047300FC6
:1000B60010270047807F0000000000FE9292929277
:1000C600929292FE0000000040424458407F404019
:1000D600407F40504846400040404242424242C271
:1000E6004242424242404000201008060040807FC3
:1000F6000000000204083000000022322AA6A26294
:100106002111098101000000004222130B42827E68
:1001160002020A12234600002030AC63300088C871
:10012600A8998E88A8C888002267221212804030BB
:100136000F00003F404071001060028C0044545490
:10014600547F54545444400004047E010000FF15BB
:10015600151555957F000000F212FE12FE12F200F0
:1001660000BE2AEA2A3E0000FF4A49484949FF00E4
:100176004249497F49494000C8B88FE8888880824B
:100186004222121A26428000081808FF0404404240
:1001960042427E4242424000101014D4545454FC51
:1001A600525252D312101000404050575555557FA9
:1001B60055555557504040000000FC242424FC258A
:1001C6002624FC242424040040308F80844C5525AA
:1001D6002525554C80808000004042445840407F91
:1001E60040405048C6000000004044444444444453
:1001F60044444444FF0000000808E8292E28E80883
:1002060008C80C0BE80808000000FF0949897F00B0
:10021600000F40807F00000000083000FF202020F3
:1002260020FF2020222C200004040201FF80403001
:100236000E01061820408000000484844424548F54
:100246001424448484040000413900003C404042A8
:100256004C4040700409310000000000000000001E
:10026600000000000000000000003636000000001C
:100276000000000000000000106000FC04E42424DC
:1002860025FE2424246404008442318F609F814724
:100296002911294543808000846424242F24E424E2
:1002A60024242F2424A4640000008141211907017D
:1002B6004181413F000000000000000000000000F6
:1002C6000000000000000000000000000000000028
:0802D600000000000000000020
:1002DE0012082F12079D12087A754DFF754E007584
:1002EE004F3EE4FB7D10FF1206F7754DFF754E0075
:1002FE00754F3E7B017D20E4FF1206F7754DFF75AD
:10030E004E00754F3E7B027D30E4FF1206F7754DB1
:10031E00FF754E00754F3E7B037D40E4FF1206F7DE
:10032E00754DFF754E00754F3E7B067D50E4FF12F6
:10033E0006F7754DFF754E00754F3E7B077D60E4E9
:10034E00FF1206F7754DFF754E00754F3E7B0FE49D
:10035E00FD7F041206F7754DFF754E00754F3E7BFF
:10036E00107D107F041206F7754DFF754E00754F08
:10037E003E7B117D2002047C754DFF754E00754F3E
:10038E00267B007A007909120595EA494B6065C211
:10039E0090D291D2927E007F407D007B007A0079D0
:1003AE00091206447BFF7A0079297D0412076475D1
:1003BE004DFF754E00754F3E7B147D407F04120637
:1003CE00F7754DFF754E00754F3E7B087D307F04EF
:1003DE001206F7754DFF754E00754F3E7B097D5029
:1003EE007F041206F7754DFF754E00754F3E7B1458
:1003FE007D60807A754DFF754E00754F2E7B007AAD
:10040E00007909120595EA494B606BD290C291D2E0
:10041E00927E007F407D007B007A007909120644AF
:10042E007BFF7A0079317D04120764754DFF754E9E
:10043E0000754F3E7B0A7D307F041206F7754DFF27
:10044E00754E00754F3E7B0C7D407F041206F7758E
:10045E004DFF754E00754F3E7B127D507F04120688
:10046E00F7754DFF754E00754F3E7B137D607F0413
:10047E001206F7020386754DFF754E00754F367BDB
:10048E00007A007909120595EA494B70030203863A
:10049E00D290D291C2927E007F407D007B007A0086
:1004AE0079091206447BFF7A0079397D04120764BC
:1004BE00754DFF754E00754F3E7B0B7D307F0412E0
:1004CE0006F7754DFF754E00754F3E7B0C7D407FD8
:1004DE00041206F7754DFF754E00754F3E7B127D6B
:1004EE00507F041206F7754DFF754E00754F3E7B1B
:0B04FE00137D607F041206F7020386E6
:03000B0002000EE2
:0F000E00758C28758A00209203C2A032D2A032CE
:0300230002068949
:10068900C0E0C0F0C083C082C0D075D000C000C037
:1006990001C002C003C004C005C006C007309833BA
:1006A900C29885990874092549F8A608E549C394AB
:1006B90040501DE508B40A147549007E007F407D4D
:1006C900007B007A007909120644800705498003F6
:1006D900754900D007D006D005D004D003D002D088
:0E06E90001D000D0D0D082D083D0F0D0E0324B
:1007D200C2A48A807F027E001207E3D2A37F027E38
:0107E2000016
:1007E300E4FDFCC3ED9FEC9E50070DBD00010C80A2
:0F07F300F2E4FFFE0FBF00010EEF640A4E70F537
:0108020022D3
:10089A00C2A5D2A4E4FBD2A37F02FE1207E3C2A33D
:0908AA00E47003D38001C350EB9C
:0108B3002222
:0D08B400AA0712089AC2A51207D2C2A322F9
:10082F007F647E001207E3D2A2D2A17F647E001202
:10083F0007E37F3E1208B47FB81208B47FC01208D6
:0B084F00B47F401208B47F3F0208B4E1
:0D08C100AA0712089AD2A51207D2C2A322DC
:10079D00C2A2C2A17FB81208B47F401208B4E4F51A
:1007AD004AE54A24B8FF1208B4E4F9E92440FF12DF
:1007BD0008B4E4FF1208C109B940F0054AE54AC37F
:0407CD00940840DD6F
:0107D1002205
:100803008F51A90553017F535107E9C39440500603
:10081300D2A2C2A18007C2A2D2A153013FE92440C0
:0C082300FF1208B4E55124B8FF0208B42D
:0606F7008F4A8D4B8B4C75
:1006FD00E4F550120803E4F550AB4DAA4EA94F7521
:10070D00F020E54CA42550F582E435F0F583120672
:10071D0017FF1208C10550E550C3941040DBE54AA0
:10072D0004FFAD4B120803E4F550E54C75F020A421
:10073D002410FFE435F0FEE5502FF582E43EF583FD
:10074D00AB4DAA4EA94F120617FF1208C10550E571
:06075D0050C3941040D4CB
:010763002273
:03000300014900B0
:10085A00E4FDFCC3ED9FEC9E5015E4FBFA0BBB00D4
:0F086A00010AEB64784A70F50DBD00010C80E4C3
:01087900225C
:10087A00438921758DFD758BFDD28EC29FD29ED282
:10088A009CD2AC758C28E4F58AD2A9D28CD2AF223C
:080764008B4A8A4B894C8D4D34
:10076C007F017E0012085A1FEFC3954D5018AB4AFB
:10077C00AA4BA94C8F82758300120617F5993099F4
:10078C00FDC2990F80E27F017E0012085AE4F54900
:01079C00223A
:03000000020509ED
:0C050900787FE4F6D8FD7581550205509E
:10061700BB010CE58229F582E5833AF583E0225098
:1006270006E92582F8E622BBFE06E92582F8E222E2
:0D063700E58229F582E5833AF583E49322FC
:100595008B4A8A4B894CAB4DAA4EA94F1206706007
:1005A50063AB4AAA4BA94C120670605F854D508516
:1005B5004E51854F528B538A548955AB50AA51A938
:1005C50052120670FF6023AB53AA54A95512067048
:1005D5006F7017042552F552E43551F55174012514
:1005E50055F555E43554F55480D1AB50AA51A9526F
:1005F5001206707002800D7401254CF54CE4354BE4
:10060500F54B809DAB4AAA4BA94C227B007A007919
:020615000022C1
:10064400EF4E6012EF60010EEDBB010B89828A83CD
:10065400F0A3DFFCDEFA2289F05007F709DFFCA9DA
:0C066400F022BBFEFCF309DFFCA9F02231
:100515000202DEE493A3F8E493A34003F68001F21C
:1005250008DFF48029E493A3F85407240CC8C333E7
:10053500C4540F4420C8834004F456800146F6DFB6
:10054500E4800B0102040810204080900003E47E43
:10055500019360BCA3FF543F30E509541FFEE493AB
:10056500A360010ECF54C025E060A840B8E493A372
:10057500FAE493A3F8E493A3C8C582C8CAC583CA9D
:10058500F0A3C8C582C8CAC583CADFE9DEE780BE55
:0100060000F9
:10067000BB010689828A83E0225002E722BBFE0288
:09068000E32289828A83E49322BB
:00000001FF
